:100000000C9401010C94A3230C947C230C947E2467
:100010000C947E240C947E240C94F6240C94CA2315
:100020000C9429010C9429010C9429010C942901A8
:100030000C9429010C9429010C9429010C94290198
:100040000C9432230C9429010C944C240C942624F7
:100050000C9429010C9429010C9429010C94290178
:100060000C9429010C94290100407A10F35A00A045
:10007000724E18090010A5D4E80000E87648170071
:1000800000E40B54020000CA9A3B000000E1F505B1
:10009000000080969800000040420F000000A086FB
:1000A00001000000102700000000E803000000002D
:1000B0006400000000000A000000000001000000D1
:1000C00000002C76D888DC674F0823DFC1DFAE59EB
:1000D000E1B1B796E5E3E453C63AE651997696E87E
:1000E000E6C28426EB898C9B62ED407C6FFCEFBC02
:1000F0009C9F40F2BAA56FA5F490055A2AF75C932D
:100100006B6CF9676DC11BFCE0E40D47FEF520E662
:10011000B500D0ED902E0300943577050080841E45
:10012000080000204E0A000000C80C333333330FA0
:10013000986E12831141EF8D2114893BE65516CF3D
:10014000FEE6DB18D1844B381BF77C1D901DA4BB49
:10015000E424203284725E228100C9F124ECA1E5FE
:100160003D27000045330A0A412D202053274938F6
:1001700055370D0D440552344A074E2C4621433A5B
:100180004B2854355A2B4C295732487F593650301A
:1001900051314F39423F47267F7F4D2E582F563BD6
:1001A0007F7F0200000000240027002A00000000DA
:1001B0000800020100000304070000000000000026
:1001C0000000000000230026002900000000002598
:1001D0000028002B000404040404040404020202A6
:1001E0000202020303030303030102040810204078
:1001F00080010204081020010204081020001025CC
:10020000642D11241FBECFEFD8E0DEBFCDBF25E0A7
:10021000AEECB1E001C01D92A437B207E1F711E0E6
:10022000A0E0B1E0E0E3F0E702C005900D92AE3C43
:10023000B107D9F710E0C0E0D1E004C02197FE017A
:100240000E944D33CF3FD107C9F70E9477270C9406
:100250000B380C940000CF93DF9390E0FC01E75142
:10026000FE4F24918B529E4FFC0184918823C9F04C
:1002700090E0880F991FFC01ED55FE4FA591B491B8
:10028000FC01E553FE4FC591D49161110DC09FB79C
:10029000F8948C91209582238C938881282328833D
:1002A0009FBFDF91CF910895623051F49FB7F894CA
:1002B0003C91822F809583238C93E8812E2BEFCF66
:1002C0008FB7F894EC912E2B2C938FBFEACF2FB7DA
:1002D000F894609146027091470280914802909193
:1002E00049022FBF08953FB7F89480914A02909138
:1002F0004B02A0914C02B0914D0226B5A89B05C0BF
:100300002F3F19F00196A11DB11D3FBFBA2FA92F94
:10031000982F8827BC01CD01620F711D811D911D91
:1003200043E0660F771F881F991F4A95D1F70895FC
:10033000DC015E96ED91FC915F9790962D913C913A
:10034000A90141705527309719F44115510579F0ED
:1003500035952795820F931F452B41F0DC012D9198
:100360003C91E20FF31F0190F081E02D0994089574
:10037000DC019296ED91FC91939794962D913C918E
:10038000A90141705527309719F44115510579F0AD
:1003900035952795820F931F452B41F0DC012D9158
:1003A0003C91E20FF31F0190F081E02D09948FEF53
:1003B0000895DC019696ED91FC91979798962D9172
:1003C0003C91A90141705527309719F44115510509
:1003D00079F035952795820F931F452B41F0DC016D
:1003E0002D913C91E20FF31F0190F081E02D0994D3
:1003F0000895DC019A96ED91FC919B979C962D9126
:100400003C91A90141705527309719F441155105C8
:1004100079F035952795820F931F452B41F0DC012C
:100420002D913C91E20FF31F0190F081E02D099492
:100430000895E6EBF2E0A089B18982E08C93A4856F
:10044000B5851C92A685B78587E68C93108EA48906
:10045000B58986E08C93A289B3898C9180618C9355
:10046000A289B3898C9188608C93A289B3898C917D
:1004700080688C930288F389E02D80818F7D808352
:100480000895CF92DF92EF92FF920F931F93CF9335
:10049000DF93C0915603D09157032097B1F104EF39
:1004A0001FEF2115310539F1690188819981DC013E
:1004B000ED91FC910284F385E02D40E050E0BA011B
:1004C00009958C01892BB9F488819981DC01ED9122
:1004D000FC91048CF58DE02D0995FC018A818F3FFC
:1004E00051F00084F185E02D309729F020E030E0D4
:1004F000A901B6010995C801DF91CF911F910F9114
:10050000FF90EF90DF90CF900895A0915403B091A9
:100510005503ED91FC9111970284F385E02DAB0119
:10052000BC01CD01DF91CF911F910F91FF90EF9012
:10053000DF90CF900994833081F028F4813099F0D6
:100540008230A9F008958730A9F08830C9F084304E
:10055000B1F4809180008F7D03C0809180008F77FF
:1005600080938000089584B58F7784BD089584B505
:100570008F7DFBCF8091B0008F778093B00008957E
:100580008091B0008F7DF9CFCF93DF93282F30E09B
:10059000F901E355FE4F8491F901E751FE4FD491E3
:1005A000F901EB52FE4FC491CC23A1F081110E94BE
:1005B0009B02EC2FF0E0EE0FFF1FEF53FE4FA591D3
:1005C000B491EC91ED2381E090E009F480E0DF91BB
:1005D000CF91089580E090E0FACF1F93CF93DF93FF
:1005E000282F30E0F901E355FE4F8491F901E751DE
:1005F000FE4FD491F901EB52FE4FC491CC23A9F0E8
:10060000162F81110E949B02EC2FF0E0EE0FFF1FCE
:10061000E553FE4FA591B4918FB7F894EC91111169
:1006200008C0D095DE23DC938FBFDF91CF911F915F
:100630000895DE2BF8CF8330910528F0880F991F9D
:1006400004970197F1F7089508958F929F92AF92C2
:10065000BF92CF92DF92EF92FF926B017C010E94DA
:1006600073014B015C01C114D104E104F104B9F040
:100670000E947301681979098A099B09683E7340D1
:100680008105910580F321E0C21AD108E108F10843
:1006900088EE880E83E0981EA11CB11CE4CFFF9069
:1006A000EF90DF90CF90BF90AF909F908F90089584
:1006B000823068F4E82FF0E0813051F0E898EE0FD6
:1006C000FF1FEF5EFE4F8AE693E0918380830895DB
:1006D000E998F5CF08958230E8F4E82FF0E0EE0FC6
:1006E000FF1FEF5EFE4F71836083813041F0809188
:1006F00069008C7F482B40936900E89A08958091A7
:100700006900837F440F551F440F551F482B4093AA
:100710006900E99A08959091100189130BC0E2EAEB
:10072000F1E0E4919FEF90931001E13049F028F05F
:10073000E23061F060E00C94ED0210926E00FACFAE
:1007400090916F009D7F90936F00F4CF9091700017
:100750009D7F9093700091E09093B0009091B100D4
:10076000987F94609093B1001092B300E3CF4F92C2
:100770005F926F927F928F929F92AF92BF92CF9231
:10078000DF92EF92FF920F931F93CF93DF9300D0EE
:1007900000D01F92CDB7DEB78B0129013A019091AD
:1007A00010018917C9F09F3F09F47EC00F900F9088
:1007B0000F900F900F90DF91CF911F910F91FF90AD
:1007C000EF90DF90CF90BF90AF909F908F907F90F1
:1007D0006F905F904F900895E2EAF1E094919D83CD
:1007E00097FDE4CF61E00E942B018D81882321F0E9
:1007F0009D81923009F04AC14801B12CA12C60E0E2
:1008000079E08DE390E0A50198010E942E332983C1
:100810003A834B835C8369017A0181E0C81AD1086D
:10082000E108F1089FEFC916D104E104F10409F0D1
:100830000CF401C160E271EA87E090E0A501980143
:100840000E942E3369017A0181E0C81AD108E108BB
:10085000F1089D81923009F0A2C08FEFC816D10433
:10086000E104F10409F00CF4E6C168E478EE81E0FB
:1008700090E0A50198010E942E3369017A0191E070
:10088000C91AD108E108F1088FEFC816D104E104B4
:10089000F10411F00CF07FC183E09091B100987FDA
:1008A000892B8093B100CFC080931001E2EAF1E080
:1008B00094919D839F3F09F479CF913041F150F09D
:1008C000923009F446C09D8197FD70CF61E00E948F
:1008D0002B018ECF14BC15BC94B5926094BD95B518
:1008E000916095BD282F30E0F901EB52FE4FE49165
:1008F000F0E0EE0FFF1FE553FE4F45915491F901D3
:10090000E751FE4FE491E09314021D826BCF1092E9
:1009100080001092810090918100986090938100F6
:1009200090918100916090938100282F30E0F9012F
:10093000EB52FE4FE491F0E0EE0FFF1FE553FE4F48
:1009400045915491F901E751FE4FE491E093130270
:1009500049CF1092B0001092B1009091B000926017
:100960009093B0009091B10091609093B100282FC6
:1009700030E0F901EB52FE4FE491F0E0EE0FFF1F83
:10098000E553FE4F4591549150931E0240931D0232
:10099000F901E751FE4FE491E0931F0223CF9FEF4F
:1009A000C916D104E104F10409F00CF46DC064E24D
:1009B00074EF80E090E0A50198010E942E33690158
:1009C0007A0181E0C81AD108E108F1089D819923D4
:1009D00009F4FAC08FEFC816D104E104F10411F054
:1009E00008F0FBC0EFC062E17AE780E090E0A5018B
:1009F00094010E942E3369017A0181E0C81AD1085E
:100A0000E108F10885E09FEFC916D104E104F10483
:100A100009F008F442CF69E07DE380E090E0A501B1
:100A200094010E942E3369017A0181E0C81AD1082D
:100A3000E108F108E5C081E09D8191112ECF95B5C7
:100A4000987F892B85BD2FEF3FEFA90141145104F9
:100A50006104710409F043C09D81913009F45EC0C6
:100A6000923009F46DC09111A1CEC7BC2093190238
:100A700030931A0240931B0250931C0280916E0027
:100A8000826080936E0092CE82E0D6CFB12CA12CF2
:100A900060E079E08DE390E0A50198010E942E339B
:100AA00069017A0181E0C81AD108E108F108C1148E
:100AB000D10491E0E906F10404F591E08D818130E3
:100AC00011F680918100887F892B809381002FEF20
:100AD0003FEFA9014114510461047104F9F0D801F8
:100AE000AA0FBB1FA30192010E94393128EE33E007
:100AF00040E050E00E940C33AFCF64E274EF80E03E
:100B000090E0A50198010E942E3369017A0181E0ED
:100B1000C81AD108E108F10893E0D0CFD09289003B
:100B2000C09288002093150230931602409317025A
:100B30005093180280916F00826080936F0036CED0
:100B4000C092B300209320023093210240932202EE
:100B5000509323028091700082608093700026CEB3
:100B600084E09FEFC916D104E104F10409F008F410
:100B700066CFC980DA80EB80FC808AE0F594E79448
:100B8000D794C7948A95D1F781E0C81AD108E108B3
:100B9000F10885E054CF64E274EF80E090E0A501B5
:100BA00098010E942E3369017A0181E0C81AD108A8
:100BB000E108F1089FEFC916D104E104F10411F036
:100BC00008F011CF84E069CE83E09FEFC916D1040D
:100BD000E104F10409F008F432CF69E07DE380E03C
:100BE00090E0A50194010E942E3369017A0181E011
:100BF000C81AD108E108F1089D81992309F4B0CF02
:100C000086E09FEFC916D104E104F10409F008F46D
:100C100044CEC980DA80EB80FC809AE0F594E794BA
:100C2000D794C7949A95D1F781E0C81AD108E10802
:100C3000F10887E032CE82E030CEAF92BF92CF9201
:100C4000DF92EF92FF920F931F93CF93DF936C018C
:100C50007B018B01040F151FEB015E01AE18BF086D
:100C6000C017D10759F06991D601ED91FC9101901F
:100C7000F081E02DC6010995892B79F7C501DF9137
:100C8000CF911F910F91FF90EF90DF90CF90BF9089
:100C9000AF900895FC01538D448D252F30E0842FB3
:100CA00090E0821B930B541710F0CF960895019794
:100CB0000895FC01918D828D981761F0A28DAE0F81
:100CC000BF2FB11D5D968C91928D9F5F9F73928F08
:100CD00090E008958FEF9FEF0895FC01918D828D34
:100CE000981731F0828DE80FF11D858D90E0089501
:100CF0008FEF9FEF0895FC01918D228D892F90E059
:100D0000805C9F4F821B91098F739927089586EB12
:100D100092E00E947B0621E0892B09F420E0822FDB
:100D2000089580E090E0892B29F00E9487068111C8
:100D30000C9400000895FC01A48DA80FB92FB11DDB
:100D4000A35ABF4F2C91848D90E001968F73992701
:100D5000848FA689B7892C93A089B1898C918370DF
:100D600080648C93938D848D981306C00288F389D8
:100D7000E02D80818F7D80830895EF92FF920F9305
:100D80001F93CF93DF93EC0181E0888F9B8D8C8D37
:100D900098131AC0E889F989808185FF15C09FB72B
:100DA000F894EE89FF896083E889F98980818370EE
:100DB000806480839FBF81E090E0DF91CF911F919D
:100DC0000F91FF90EF900895F62E0B8D10E00F5FBE
:100DD0001F4F0F731127E02E8C8D8E110CC00FB694
:100DE00007FCFACFE889F989808185FFF5CFCE012C
:100DF0000E949B06F1CFEB8DEC0FFD2FF11DE35A06
:100E0000FF4FF0829FB7F8940B8FEA89FB898081AE
:100E10008062CFCFCF93DF93EC01888D8823B9F028
:100E2000AA89BB89E889F9898C9185FD03C08081F5
:100E300086FD0DC00FB607FCF7CF8C9185FFF2CF72
:100E4000808185FFEDCFCE010E949B06E9CFDF9127
:100E5000CF91089542E651E030E020E0082E000CEA
:100E6000990BFA0164916817190621F4C901806E83
:100E7000936008953196E491E817190621F4C901A9
:100E80008066936008952F5F3F4F4E5F5F4F203223
:100E9000310539F790E080E008950F931F93CF93C9
:100EA000DF93EC01862F0E94C402682F8E01085E3A
:100EB0001E4FF8018081811133C09E01255F3E4F96
:100EC000F90180819181A281B381880F991FAA1FA6
:100ED000BB1F862B80839183A283B383275F3F4F01
:100EE000F901408151816281738184239523A62376
:100EF000B72325503109F901408151816281738105
:100F000084179507A607B70731F481E0F8018083BD
:100F100019861A861886DF91CF911F910F91089537
:100F20004985FE01E40FF11D5385988521E030E0ED
:100F3000092E01C0220F0A94EAF7662311F1252B2E
:100F400023879F5F9887983031F72385229530E07B
:100F5000C90195958795959587958373220F331FC2
:100F6000220F331F2C7C822B90E09C013595279516
:100F70002575880F991F8A7A822B83874F5F49874F
:100F8000C9CF20952523DCCF875E9E4FDC01ED91F4
:100F9000FC9181A98F3F79F0823059F0833059F468
:100FA00081E00484F585E02D309729F043E050E09E
:100FB000099480E0F6CF08953F924F925F926F922E
:100FC0007F928F929F92AF92BF92CF92DF92EF92D9
:100FD000FF920F931F93CF93DF934B015C0109E0C6
:100FE00010E03EEF332E300E4CEF442E55245A9431
:100FF000652C752C002E04C0440C551C661C771CF7
:101000000A94D2F758E1C52ED12CE12CF12C002EF8
:1010100004C0CC0CDD1CEE1CFF1C0A94D2F7C2E00D
:10102000D0E0C701B6010E9404309B01AC0160E032
:1010300074E284EF9BE40E940E3220E030E04AE745
:1010400054E40E940E322DEC3CEC4CE45DE30E9433
:101050008B319B01AC01C501B4010E948A319F779D
:1010600020E030E040E05FE30E94FF2F1816CCF054
:10107000CE0123E0880F991F2A95E1F78329DF919C
:10108000CF911F910F91FF90EF90DF90CF90BF9085
:10109000AF909F908F907F906F905F904F903F9018
:1010A00008952197C40CD51CE61CF71CCF3FDC0724
:1010B00009F0B7CF015011090230110509F091CFA5
:1010C00080E0DDCF875E9E4FFC0180819181089595
:1010D000CF93CFB7F89480911202811127C0EFED22
:1010E000F1E08491E3EFF1E09491E82FF0E0EE0F6E
:1010F000FF1FED55FE4FA591B491EC91E92321F42A
:1011000061E08AE00E94ED0261E08AE00E942B012A
:101110008CB580618CBD8CB580648CBD61E08DE048
:101120000E942B0161E08BE00E942B018091120252
:101130008F5F80931202CFBFCF910895DC01589644
:10114000ED91FC91309709F0099460E070E0CB01DB
:101150000895DC015296ED91FC91309719F0CB0186
:10116000BA0109940895DC015096ED91FC913097F5
:1011700009F0099408958F929F92AF92BF92CF92F7
:10118000DF92EF92FF920F931F93CF93DF938091A3
:10119000540390915503DC01ED91FC91048CF58D85
:1011A000E02D0995EC010E949E086B017C012091C5
:1011B0005D0330915E0340915F0350916003809125
:1011C000650390916603A0916703B0916803280FAF
:1011D000391F4A1F5B1F6091590370915A03809118
:1011E0005B0390915C038090610390906203A090F8
:1011F0006303B0906403680D791D8A1D9B1D0E94D6
:101200004102CE010E949E086C197D098E099F093A
:101210000091690310916A0320916B0330916C0374
:10122000601771078207930720F4CE010E94B3086C
:10123000E8CFDF91CF911F910F91FF90EF90DF905A
:10124000CF90BF90AF909F908F900895CF92DF92F4
:10125000EF92FF920F931F93CF93DF9380915403EC
:1012600090915503DC01ED91FC91048CF58DE02DFE
:101270000995EC010E949E086B017C0120915D03A1
:1012800030915E0340915F03509160036091590378
:1012900070915A0380915B0390915C030E9441021C
:1012A000CE010E949E086C197D098E099F0900914C
:1012B000690310916A0320916B0330916C036017EE
:1012C00071078207930720F4CE010E94B308E8CF8C
:1012D000DF91CF911F910F91FF90EF90DF90CF9012
:1012E00008956F927F928F929F92AF92BF92CF920A
:1012F000DF92EF92FF920F931F93CF93DF936B01D7
:10130000EC013C01660E771E88248394912CC6154F
:10131000D70549F1E9900E94260980916D0381501B
:10132000990B540102C0AA0CBB1C8A95E2F701E09C
:1013300010E0F12CA016B10668F0C70180239123BC
:10134000892B29F00E94BB08000F111FF3CF0E94C8
:101350002609FACF10E080916E031817C0F60E949C
:10136000BB081F5FF8CFC601DF91CF911F910F918E
:10137000FF90EF90DF90CF90BF90AF909F908F90B5
:101380007F906F9008956F3F49F0DC011696ED91C4
:10139000FC91309719F0862F0995089580E0089503
:1013A000FC01862F6F3F39F00480F581E02D3097E6
:1013B00011F0642F099408951F93CF93DF93FC01DC
:1013C00027A9222371F0142F462FEC0160AD0E9453
:1013D000D009412F69ADCE01DF91CF911F910C94BF
:1013E000D009DF91CF911F910895FC01862F6F3FA7
:1013F00039F00280F381E02D309711F0642F0994C9
:101400000895CF93DF93EC01C75EDE4F8881998109
:1014100041E0FC0160A90E94F5098881998140E0C2
:10142000FC0160A90E94D00941E050E060E070E05A
:10143000888199810E94A9088881998141E0FC01F5
:1014400060A90E94D00945E050E060E070E088812A
:101450009981DF91CF910C94A908FC0126A9222340
:10146000B9F082A993A9892B99F09FB7F89480913C
:101470001202882319F08150809312028091120287
:10148000811105C08CB58F7B8CBD109211029FBF5E
:101490000895CF93DF93EC0141E06EA50E94F5091A
:1014A00041E06EA5CE010E94D0098EA98823B1F03B
:1014B0002C8D3D8DC901959587958C0F9D1FEA8DCB
:1014C000FB8D20FF08C0DC012D913C91E20FF31F42
:1014D0000190F081E02DDF91CF910994DF91CF91C0
:1014E00008958EBD00000DB407FEFDCF8EB50895A2
:1014F000BF92CF92DF92EF92FF920F931F93CF9301
:10150000DF93EC01F62EB42E69012CA99DA98091E0
:101510001102882361F08FB7F894309111023130B5
:1015200029F53DB3309310023DB33DBB8FBF2CBDB9
:101530009DBD40E06EA5CE010E94D0098B2D8F2964
:101540000E94710A89818F1114C0C114D10431F134
:101550008601F12CC8018C199D098E159F05F0F4A8
:10156000F80181918F010E94710AF4CF80931002DB
:10157000DECF88818F1112C00115110579F0680145
:10158000F12CC601801B910B8E159F0538F480E06D
:101590000E94710AF60181936F01F3CF41E06EA5BD
:1015A000CE010E94D00980911102882351F09FB78B
:1015B000F8942091110280911002213061F48DBBCA
:1015C0009FBFDF91CF911F910F91FF90EF90DF9020
:1015D000CF90BF9008958FBFF4CFEF920F931F93DA
:1015E000CF93DF931F92CDB7DEB74983EE24E39408
:1015F00010E000E09E012F5F3F4F462FFC0161810C
:101600000E94780A0F90DF91CF911F910F91EF9078
:101610000895EF920F931F93CF93DF931F92CDB74F
:10162000DEB7462F1982EE24E3948E010F5F1F4F21
:1016300030E020E0FC0160810E94780A89810F90EF
:10164000DF91CF911F910F91EF900895CF93C0E05C
:101650008FE693E00E94010A62E4809188049091F1
:1016600089040E94090B823181F04AE050E060E079
:1016700070E080918804909189040E94A908CF5F4E
:10168000CA3031F780E0CF91089581E0FCCF875ECA
:101690009E4F61E0FC01808191810E94090B80785E
:1016A00090E00895CF93DF93EC010E94470B8038C0
:1016B000910551F4C75EDE4F4FEF62E18881998159
:1016C000DF91CF910C94ED0A892B59F4C75EDE4F60
:1016D0004FEF6EE3888199810E94ED0A4FEF6FE32F
:1016E000EDCFDF91CF910895DF92EF92FF920F93AC
:1016F0001F93CF93DF93EC01D62E0E94470B8038C7
:101700009105D9F4FE01ED5DFE4F8081863081F0B8
:10171000C75EDE4F63E1888199810E94090B90E0EA
:10172000DF91CF911F910F91FF90EF90DF9008957F
:10173000C55DDE4F88819981F3CF8E01055D1E4F17
:10174000892BF1F47E018FECE81A8EEFF80AF7018D
:101750008081811115C0DD2099F078978081918179
:10176000CE5CDE4F288160E0203809F062E30E9401
:10177000090B90E0F8019183808381E0F701808379
:10178000F80180819181CCCF8F929F92AF92BF92CE
:10179000CF92DF92EF92FF920F931F93CF93DF933D
:1017A000EC018B016A010E94470B4C01E881F98131
:1017B0000280F381E02DCE010995E881F98104884A
:1017C000F589E02D61E0CE0109957C01C114D104B9
:1017D00039F0C816D90668F58C199D0976016C0197
:1017E0005E0127EEA21A2EEFB20AF50180819181E7
:1017F000F0E88F16910471F5FE01E65DFE4F208141
:101800002223D1F06CE10E94090B86FD15C0CE01A8
:101810000E94520B88EE9FEFDF91CF911F910F91A5
:10182000FF90EF90DF90CF90BF90AF909F908F9000
:101830000895D12CC12CD4CF62E1F5018081918132
:101840000E94090B85FF16C0CE010E94520B89EF42
:101850009FEFE2CF892871F460E30E94090B867044
:10186000823011F0843031F460E0F50180819181A3
:101870000E94090BF5018081918130E020E040E079
:10188000FC0160810E94780AC114D10451F060E02B
:10189000F501808191810E94090BF1E0CF1AD108F6
:1018A000F3CFFE01EF5CFE4F1082CE010E94520B7F
:1018B00090E080E0B1CF4F925F926F927F929F92C3
:1018C000AF92BF92CF92DF92EF92FF920F931F934E
:1018D000CF93DF93201708F45BC09C2CD22F742E7B
:1018E000162F5C010E94090B21E02D0F6FEF70E0B5
:1018F000AB0102C0440F551F2A95E2F79A0148E058
:1019000050E0401B510902C0759567954A95E2F772
:10191000262BC22FC0952823C721C22B4C2F612F05
:10192000C5010E94ED0AC5010E949E082B013C01E1
:1019300028EE33E0E29E6001E39ED00C11240D2CD2
:10194000000CEE08FF08C5010E949E086419750985
:10195000860997096C157D058E059F05E0F4612FBA
:10196000C5010E94090B8C27892169F790E080E06E
:10197000DF91CF911F910F91FF90EF90DF90CF906B
:10198000BF90AF909F907F906F905F904F90089521
:1019900085EF9FEFEDCF80EF9FEFEACFCF92EF92F1
:1019A0000F931F93CF93DF93EC01162F0E94470BE9
:1019B000892B19F48EEF153009F08FEFC75EDE4FDB
:1019C000C82E85E0E82E00E022E0412F61E088810A
:1019D00099810E945B0CDF91CF911F910F91EF9045
:1019E000CF900895CF92EF920F931F93CF93DF93F1
:1019F000182F60E08FE693E00E94CE0CEC01CC241F
:101A0000CA9485E0E82E07E027E0412F61E080914D
:101A10008804909189040E945B0CC82BD92B61E04B
:101A20008FE693E00E94CE0C8C2B9D2BDF91CF9103
:101A30001F910F91EF90CF900895AF92BF92CF92E8
:101A4000EF920F93CF93DF935C0161E08FE693E019
:101A50000E94CE0C009729F58FE693E00E94470B79
:101A6000803839F586E0A816B10408F43FC0CC24CC
:101A7000CA9422E0E22E00E027E04B2D60E2809144
:101A80008804909189040E945B0CEC0127E04A2DA8
:101A900061E280918804909189040E945B0C8C2BF8
:101AA0009D2BDF91CF910F91EF90CF90BF90AF9092
:101AB000089581111EC04B2D469546954695CC2420
:101AC000CA9482E0E82E00E027E065E28091880475
:101AD000909189040E945B0CEC01A50193E056955E
:101AE00047959A95E1F727E066E2D3CF8EEE9FEF18
:101AF000D8CF8FEF9FEFD5CF8F929F92AF92BF92AB
:101B0000CF92EF92FF920F931F93CF93DF935C01DD
:101B1000F62E142F0E94470B9501275E3E4F490178
:101B20008038910509F057C064E2D9018D919C91EC
:101B30000E94090BD401ED91FC91CC24CA9432E0AF
:101B4000E32E04E027E040E1811101C040E060E4C1
:101B5000CF010E945B0CEC01F501ED5DFE4F808131
:101B6000863079F4CC24CA9422E0E22E00E027E00B
:101B70004F2D62E2F401808191810E945B0CC82BA1
:101B8000D92BC5010E94520BCC24CA9492E0E92EB5
:101B900000E027E040E06FE0D4018D919C910E942D
:101BA0005B0CC82BD92B27E040E06DE0F40180816D
:101BB00091810E945B0C8C2B9D2B009719F1DF917A
:101BC000CF911F910F91FF90EF90CF90BF90AF906A
:101BD0009F908F900895892BA9F4CC24CA9482E019
:101BE000E82E06E027E040E060E4D4018D919C916E
:101BF0000E945B0C009719F7C5010E94520B65E02B
:101C0000153041F040E061E0F401808191810E9453
:101C1000DC09612FC501DF91CF911F910F91FF90DA
:101C2000EF90CF90BF90AF909F908F900C94CE0C80
:101C3000AF92BF92CF92DF92EF92FF920F931F93DA
:101C4000CF93DF93EC010E94470B892BE9F591E1DB
:101C5000E92E65E0CE010E94CE0C5E0187EEA81A47
:101C60008EEFB80A4AE050E060E070E0F501808154
:101C700091810E94A90810E000E0F12C6E2DF50181
:101C8000808191810E94090B80FBCC24C0F8D12C6B
:101C9000C601002E01C0880F0A94EAF7F82A0F5FE8
:101CA0001F4F0830110551F761E0CE010E94CE0CA4
:101CB0008F2DDF91CF911F910F91FF90EF90DF90CB
:101CC000CF90BF90AF9008958CE2E82EC2CFCF9313
:101CD000DF93EC01FC01E75EFE4F40E060E08081B5
:101CE00091810E94DC0961E0CE01DF91CF910C94DB
:101CF000CE0C2F923F924F925F926F927F928F9273
:101D00009F92AF92BF92CF92DF92EF92FF920F938A
:101D10001F93CF93DF93CDB7DEB72C970FB6F89410
:101D2000DEBF0FBECDBF9C878B877A8769878A010C
:101D300061E00E94CE0C0097D9F58B859C850E94AE
:101D4000470B8038910509F04CC061E08B859C857C
:101D50000E94CE0C009761F546E0602F8B859C8534
:101D60000E947C0D009721F5EB84FC8427EEE21A9B
:101D70002EEFF20AD7018D919C91FC0167A50E947C
:101D8000C3098111A5C0D7018D919C910E94B30810
:101D9000F70180819181DC01D1966C910E94C30989
:101DA000882341F38B859C850E94520B8AEF9FEF1D
:101DB0002C960FB6F894DEBF0FBECDBFDF91CF914A
:101DC0001F910F91FF90EF90DF90CF90BF90AF9059
:101DD0009F908F907F906F905F904F903F902F904B
:101DE0000895892B09F074C0EB85FC85EB5DFE4FEF
:101DF00020813181428153812D833E834F835887D7
:101E000061E08B859C850E94CE0C009789F645E0A9
:101E1000602F8B859C850E947C0D009749F62B8452
:101E20003C8437EE231A3EEF330AD1018D919C9109
:101E30000E949E084B015C01C80123E0880F991F96
:101E40002A95E1F79C0150E040E029833A834B83D7
:101E50005C83D1018D919C91FC0167A50E94C3090F
:101E6000811136C0D1018D919C910E94B308F1017E
:101E7000808191810E949E086B017C0169817A8139
:101E80008B819C810E9404302B013C0120E030E0DA
:101E90004AE754E46D817E818F8198850E94653088
:101EA0009B01AC01C301B2010E940E3220E836E969
:101EB00048E95AE40E9465300E948732C818D90860
:101EC000EA08FB086C157D058E059F0510F66ACFA4
:101ED000AB85BC85ED91FC9111970084F185E02DD7
:101EE000A80169857A85CD012C960FB6F894DEBFDE
:101EF0000FBECDBFDF91CF911F910F91FF90EF905B
:101F0000DF90CF90BF90AF909F908F907F906F9019
:101F10005F904F903F902F900994CF92EF920F9344
:101F20001F93CF93DF93EC01162F0E94470B892B51
:101F300089F51130D9F028F0123011F189EE9FEFB8
:101F40000EC0C75EDE4FCC24CA9422E0E22E05E02C
:101F500026E040E060E3888199810E945B0CDF917C
:101F6000CF911F910F91EF90CF900895C75EDE4FF4
:101F7000CC24CA9492E0E92E05E026E040E2EACFC4
:101F8000C75EDE4FCC24CA9482E0E82E05E026E04E
:101F900040E4E0CF8CEE9FEFE2CF4F925F926F92E2
:101FA0007F92AF92BF92CF92EF920F93CF93DF9336
:101FB000EC012A013B015C0187EEA81A8EEFB80AFA
:101FC00064E2F501808191810E94090B81114BC06F
:101FD00061E0CE010E94CE0CEC0120E030E040E058
:101FE00059E4C301B2010E94653020E030E040E0D6
:101FF0005DE30E9465300E9487322B013C01A30102
:1020000066277727CC24CA9492E0E92E00E027E0E7
:1020100066E0F501808191810E945B0CC82BD92B71
:102020007727672D562D452D27E067E0F501808144
:1020300091810E945B0CC82BD92B27E0442D68E0CE
:10204000F501808191810E945B0C8C2B9D2BDF918F
:10205000CF910F91EF90CF90BF90AF907F906F9006
:102060005F904F900895D0E0C0E0B7CFCF92EF924D
:102070000F931F93CF93DF93EC01162F0E94470B12
:10208000892BA9F4C75EDE4FCC24CA9482E0E82EE7
:1020900000E022E0412F6DE0888199810E945B0C75
:1020A000DF91CF911F910F91EF90CF9008958CEE1B
:1020B0009FEFF6CF4F925F926F927F92AF92BF9257
:1020C000CF92DF92EF92FF920F931F93CF93DF9304
:1020D000EC015A016B010E94470B892B09F07DC06E
:1020E00020E030E0A901B501C6010E94FF2F750173
:1020F000860187FF06C02AE9E22E39E9F32E09E1BD
:102100001FE320E030E040E05FE3FE01EB5DFE4FC7
:1021100060817181828193810E9465309701A8015D
:102120000E948B3120E030E04AE753E40E94FF2F09
:1021300018160CF455C020E030E048E453E4B50133
:10214000C6010E94FF2F18160CF44AC061E0CE01B0
:102150000E94CE0C009791F520E030E040E059E479
:10216000B701C8010E94653020E030E04AEF56E434
:102170000E940E320E9487322B013C017727672D87
:10218000562D452D5E0187EEA81A8EEFB80ACC2495
:10219000CA9492E0E92E00E025E064E0F501808138
:1021A00091810E945B0CEC0127E0442D65E0F50174
:1021B000808191810E945B0C8C2B9D2BDF91CF91B4
:1021C0001F910F91FF90EF90DF90CF90BF90AF9055
:1021D0007F906F905F904F9008958CEE9FEFEECFC1
:1021E0008AE99FEFEBCF2F923F924F925F926F92CF
:1021F0007F928F929F92AF92BF92CF92EF920F9366
:102200001F93CF93DF93EC011B014A01522E61E033
:102210000E94CE0C5C01CE010E94470B80389105D4
:1022200009F07AC08FEF8816910411F008F0B0C061
:102230002E01A7EE4A1AAEEF5A0A64E2F20180813B
:1022400091810E94090BD201ED91FC91CC24CA949A
:1022500022E0E22E04E027E040E5811103C006E021
:1022600027E040E460E4CF010E945B0CCE010E94B5
:10227000520BCC24CA9492E0E92E00E027E0482DCE
:1022800062E2F201808191810E945B0C3C0127E0B7
:1022900040E06EE0D2018D919C910E945B0C8629FA
:1022A0009729A82AB92A27E040E06DE0F201808151
:1022B00091810E945B0CA82AB92A3E01F7EE6F1AA1
:1022C000FEEF7F0AD3018D919C91E82C10E000E095
:1022D000910140E0FC0161810E94780A41E060E0E8
:1022E000D3018D919C910E94DC0963E0CE010E9494
:1022F000CE0C8A299B29DF91CF911F910F91EF90EE
:10230000CF90BF90AF909F908F907F906F905F9095
:102310004F903F902F900895892B79F6F0E48F1617
:102320009104B0F53E0187EE681A8EEF780ACC244E
:10233000CA9482E0E82E06E027E040E060E4D301A2
:102340008D919C910E945B0CCE010E94520BFE016C
:10235000EE5CFE4F8081803839F4482D60E0F30157
:10236000808191810E94ED0A60E3D3018D919C915F
:102370000E94090B8670823019F0843009F09DCFDD
:10238000452D60E0F301808191810E94ED0A95CF97
:102390008CEF9FEFB0CFAF92BF92CF92EF920F939F
:1023A000CF93DF93EC0161E00E94CE0C009719F50A
:1023B0005E0187EEA81A8EEFB80ACC24CA9482E098
:1023C000E82E02E025E040E060E4F50180819181A3
:1023D0000E945B0C009779F460E0CE010E943610F9
:1023E000009749F406E026E040E061E3F5018081D2
:1023F00091810E945B0CDF91CF910F91EF90CF9074
:10240000BF90AF900895CF93DF93EC010E94470BEC
:10241000892BA1F440E061E0FE01E75EFE4F808180
:1024200091810E94DC09CE010E94CB11009741F4FA
:1024300065E0CE01DF91CF910C94CE0C8CEE9FEF36
:10244000DF91CF910895CF92DF92EF92FF920F9399
:102450001F93CF93DF93EC016A017B010E94470B2E
:10246000892B09F043C08E01075E1E4F41E060E0FA
:10247000F801808191810E94DC09C114D104E1043A
:10248000F10431F1A7016627772766E0F801808122
:1024900091810E94ED0A77276F2D5E2D4D2D67E00B
:1024A000F801808191810E94ED0A4C2D68E0F801CD
:1024B000808191810E94ED0A63E0CE01DF91CF918E
:1024C0001F910F91FF90EF90DF90CF900C94CE0C66
:1024D000CE010E94CB11009779F3DF91CF911F912C
:1024E0000F91FF90EF90DF90CF9008958CEE9FEFCB
:1024F000F4CF3F924F925F926F927F928F929F9212
:10250000AF92BF92CF92DF92EF92FF920F931F9301
:10251000CF93DF93EC01362E0E94470B8038910554
:1025200009F094C18E01015E1E4F20E030E04AEFB9
:1025300053E4F80160817181828193810E948A3124
:102540009F772FE632E143E85AE30E94FF2F9E0176
:10255000255E3E4F5901181664F1F901C080D18003
:10256000E280F38020E030E847E554E4C701B6019B
:102570000E94F73287FD47C020E030E04FE754E487
:10258000C701B6010E94FF2F1816ECF142E066E386
:102590007E01F7EEEF1AFEEFFF0AF70180819181CD
:1025A0000E94ED0A44E66AE3F701808191810E946E
:1025B000ED0AF501C080D180E280F380F80140800F
:1025C0005180628073802AE939E949EF50E4C30100
:1025D000B2010E948A319F772FE632E143E85AE345
:1025E0000E94FF2F181694F127E03BEE4FEF5BE3BC
:1025F000C701B6010E948B316B017C0110E048E4F9
:10260000942E812CF3C020E030E04DEC53E4C70160
:10261000B6010E94F73287FDCCCF20E030E443E0E2
:1026200054E4C701B6010E94FF2F18160CF4C1CF65
:1026300042E066E37E01F7EEEF1AFEEFFF0AF701D4
:10264000808191810E94ED0A4FE7ADCF26E636E604
:1026500046E251E4C301B2010E948A319F772FE61E
:1026600032E143E85AE30E94FF2F26EA38EB4AE2C0
:102670005CE318160CF055C02AE939E949E751E442
:10268000C301B2010E948A319F772FE632E143E80D
:102690005AE30E94FF2F27E03BEE4FE75CE318165A
:1026A0000CF03FC026E636E646EA51E4C301B2012B
:1026B0000E948A319F772FE632E143E85AE30E9475
:1026C000FF2F2DEA33EA4AEA5CE3181654F520E0BE
:1026D00030E04AEF51E4C301B2010E948A319F7792
:1026E0002FE632E143E85AE30E94FF2F20E030E07A
:1026F00040E05DE31816ACF42DEC3CEC46E252E40D
:10270000C301B2010E948A319F772FE632E143E88C
:102710005AE30E94FF2F181674F029E23EEA4AE2BB
:102720005DE3C701B6010E948B316B017C0110E0B3
:1027300034E4932E66CF20E030E04AE752E4C30150
:10274000B2010E948A319F772FE632E143E85AE3D3
:102750000E94FF2F18160CF08BC020E030E04AEFEB
:1027600052E4C301B2010E948A319F772FE632E121
:1027700043E85AE30E94FF2F18160CF079C020E0BE
:1027800030E04AE753E4C301B2010E948A319F77E7
:102790002FE632E143E85AE30E94FF2F18160CF0AF
:1027A00067C020E030E04AEF53E4C301B2010E9469
:1027B0008A319F772FE632E143E85AE30E94FF2FE8
:1027C00018160CF443C06FE28E01075E1E4FF8012D
:1027D000808191810E94090B982E60E3F80180812D
:1027E00091810E94090B182F20E4822EE881F98143
:1027F0000280F381E02DCE010995B701A6013110C9
:1028000005C0F5014081518162817381CE010E9432
:10281000CD0FC75EDE4FCC24CA9482E0E82E07E0DD
:1028200027E0482D61E3888199810E945B0C00E0DC
:1028300027E0492D6FE2888199810E945B0C27E097
:10284000412F60E3888199810E945B0CDF91CF91D9
:102850001F910F91FF90EF90DF90CF90BF90AF90BE
:102860009F908F907F906F905F904F903F900895D2
:1028700010E090E4992EC5CECF93DF93EC018A85CA
:102880009B85AC85BD858E839F83A887B9870E9471
:1028900067016A837B838C839D8381E0898388833E
:1028A000DF91CF910895CF93DF93EC018E819F81CB
:1028B000A885B9858A839B83AC83BD830E94670109
:1028C0006A877B878C879D8781E089838883DF91F6
:1028D000CF9108952091B4023091B502281739079D
:1028E00071F49091B2028091B302981741F0E09197
:1028F000B202F0E0E053FE4F808190E008958FEF48
:102900009FEF08950895EF92FF920F931F93CF9337
:10291000DF93DC015C96ED90FC905D97E114F1048F
:1029200079F481E090E013969C938E93129790E057
:1029300080E0DF91CF911F910F91FF90EF9008956C
:102940005196ED91FC91529750968C915097982FFB
:1029500090950FB75E962C915E97122F127021FD05
:102960006095F8942081112319F1282B2083E70129
:102970002197F1F728E0462F50E0308160FF1AC020
:10298000382B3083E7012197F1F7BA0175956795E8
:10299000215089F7112381F08081892380830FBF23
:1029A0005C968D919C910197F1F781E090E0C1CF09
:1029B0002923DCCF3923E5CF9081892BEFCF2091DC
:1029C000B4023091B5022817390761F48091B3023F
:1029D0002091B20290E0805C9F4F821B91098F731F
:1029E0009927089590E080E008952091B4023091F5
:1029F000B50228173907B9F49091B2028091B30259
:102A0000981789F0E091B202F0E0E053FE4F808128
:102A10002091B20230E02F5F3F4F2F733327209376
:102A2000B20290E008958FEF9FEF0895E091B40215
:102A3000F091B502E817F90769F4A389B4899C916C
:102A40008589809589238C931092B5021092B402E7
:102A500081E0089580E0089510926C0510926B0556
:102A600010926A0510926905109268051092670528
:102A70008DEC90E090936E0580936D0590915D05CF
:102A8000963108F046C025E530E030936805209384
:102A900067052BEC30E030936A052093690520E947
:102AA00030E030936C0520936B052091680084E042
:102AB000983048F031E09E3008F430E081E001C009
:102AC000880F3A95EAF7822B809368002DE630E074
:102AD000983050F02BE630E09E3030F02CE630E0BD
:102AE000963110F030E020E03093650520936405C6
:102AF000292F30E09830C0F581E001C0880F9A9509
:102B0000EAF78093660580916D0590916E050197B7
:102B1000F1F780916B0590916C05892B21F18091E3
:102B2000B4029091B50225E081359207E1F000975B
:102B300011F00E94161580916F058E7F80936F05AE
:102B40001092B3021092B20281E595E09093B50223
:102B50008093B402E0916405F091650580819091C5
:102B60006605892B808308959E3040F428503109F2
:102B700081E001C0880F2A95EAF7C3CF2E503109B2
:102B8000F7CF90E080E008958F929F92AF92BF922E
:102B9000CF92DF92EF92FF921F93CF93DF93CAE021
:102BA000D0E0C12CD12C76011EE4812C20E3922EA2
:102BB00021E1A22EB12C10937C006AE070E080E04D
:102BC00090E00E94250380917A00806480937A00CF
:102BD00080917A0086FDFCCF809178002091790069
:102BE00030E0322F2227032E000C440B550B282BEC
:102BF000C501B4010E942E33C20ED31EE41EF51E81
:102C00002197C9F6C701B6012AE030E040E050E064
:102C10000E942E33CA01B9010E94063020E030E044
:102C20004AE754E40E940E3220E030E0A9010E94FD
:102C30008B31DF91CF911F91FF90EF90DF90CF907C
:102C4000BF90AF909F908F900895AF92BF92CF9218
:102C5000EF920F93CF93DF93EC010E94470B892BE8
:102C600011F5FE01E75DFE4F80818823F9F0CE016A
:102C70000E94670E5C01C75EDE4FCC24CA9482E0DE
:102C8000E82E05E026E040E06AE0888199810E9414
:102C90005B0C8A299B29DF91CF910F91EF90CF9008
:102CA000BF90AF9008958CEE9FEFF5CF85E99FEF31
:102CB000F2CFCF92EF920F931F93CF93DF93EC015C
:102CC000162F0E94470B892B09F053C0FE01E75DC8
:102CD000FE4F8081882359F011114EC0CE01DF9143
:102CE000CF911F910F91EF90CF900C942516CE01AC
:102CF0000E94670E0097C1F41130E9F038F01230ED
:102D000021F1143061F186E99FEF0EC0C75EDE4FFE
:102D1000CC24CA9432E0E32E05E026E040E06AE0ED
:102D2000888199810E945B0CDF91CF911F910F9157
:102D3000EF90CF900895C75EDE4FCC24CA9422E076
:102D4000E22E05E026E040E6EACFC75EDE4FCC2467
:102D5000CA9492E0E92E05E026E040E4E0CFC75EA9
:102D6000DE4FCC24CA9482E0E82E05E026E040E263
:102D7000D6CF8CEE9FEFD8CF85E99FEFD5CF8F923E
:102D80009F92AF92BF92CF92EF920F93CF93DF9328
:102D9000843129F09EEF980F903108F050C0C82F71
:102DA0008FE693E00E94670E4C0180918804909119
:102DB0008904CC24CA9422E0E22E07E027E040E810
:102DC00069E0C43141F10E945B0C5C014EEF4C0F95
:102DD000406700E026E069E08091880490918904D2
:102DE0000E945B0C8A299B29882A992A22E044E0C8
:102DF0006DE480918804909189040E945B0C88297D
:102E00009929DF91CF910F91EF90CF90BF90AF9024
:102E10009F908F9008950E945B0CEC0100E026E0EB
:102E20004FE769E080918804909189040E945B0CCF
:102E30008C2B9D2B882A992A22E047E0D9CF83EF5B
:102E40009FEFDFCFCF92EF920F93CF93DF9361E0AD
:102E50008FE693E00E94CE0CEC01CC24CA9482E071
:102E6000E82E00E025E043E26BE080918804909139
:102E700089040E945B0C8C2B9D2BDF91CF910F91CD
:102E8000EF90CF9008954F925F926F927F92AF92A2
:102E9000BF92CF92DF92EF92FF920F931F93CF9347
:102EA000DF9388E08093090140E050E06AE772E434
:102EB000409304015093050160930601709307014C
:102EC0008093080110910F01A0900D01B0900E01A8
:102ED000F0900B01D0900A01409000015090010148
:102EE00060900201709003018091880490918904A0
:102EF0000E94490A809188049091890440E0FC0175
:102F000067A50E94F509809188049091890440E0AA
:102F1000FC0161A90E94F5090E94260B811107C0DE
:102F200080918804909189040E942D0AFFCF8FE63A
:102F300093E00E94670EEC01892B31F5CC24CA94F2
:102F4000A2E0EA2E00E027E040E064E280918804FD
:102F5000909189040E945B0CEC01892BA9F48FE607
:102F600093E00E94470B8038910541F48FE693E08F
:102F70000E94470B80389105C1F0D8CF80E80E94AD
:102F8000F20CEC01892B91F3CD2B81F6DF91CF91DF
:102F90001F910F91FF90EF90DF90CF90BF90AF9077
:102FA0007F906F905F904F90089561E08FE693E07F
:102FB0000E94CE0CCC24CA94F2E0EF2E00E027E071
:102FC0004D2D69E380918804909189040E945B0CE7
:102FD000EC01892BC9F60E942217EC01892BA1F67E
:102FE000C5010E941D0DEC01892B71F610929C0405
:102FF00010929D0410929E0410929F048FE693E01D
:103000000E94470B8038910509F090CF8FE693E03E
:103010000E94670EEC0104E027E040E66DE180913C
:103020008804909189040E945B0CC82BD92B2097AF
:1030300009F0AACF80E090E0AAE7B2E480938E0482
:1030400090938F04A0939004B09391048091A20474
:1030500081110BC020E030E049E053E4C301B2012C
:103060000E94F73287FF32C061CFC0918804D091AF
:1030700089042091920461E070E080E090E004C057
:10308000660F771F881F991F2A95D2F70E94043078
:1030900020E030E04AE752E40E940E3220E030E0C7
:1030A00040E851E40E94F732CC24CA94E2E0EE2ECC
:1030B00003E023E048E087FD40E066E2CE010E94A5
:1030C0005B0CEC01892B09F05FCFC4CF20E030E42A
:1030D00043E054E4C301B2010E94FF2F18160CF420
:1030E00025CFB301A2018FE693E00E94CD0FEC0142
:1030F000892B09F049CF40928A0450928B04609248
:103100008C0470928D048FE693E00E94470B803808
:10311000910509F00BCF8FE693E00E94670EEC015A
:10312000CC24CA9472E0E72E00E020E040E06DE19C
:1031300080918804909189040E945B0CC82BD92B44
:1031400080918804909189042091990444E0211190
:1031500001C040E04068CC24CA9462E0E62E02E060
:1031600027E06EE10E945B0CC82BD92B00E022E027
:1031700043E061E380918804909189040E945B0C94
:10318000C82BD92B27E04AE067E38091880490910F
:1031900089040E945B0CC82BD92B209709F0F4CE30
:1031A00088E0809392048091A204811108C08FE688
:1031B00093E00E94470B8038910559F1B7CEC0913A
:1031C0008804D091890420918E0430918F0440911D
:1031D00090045091910460E070E080E893E40E94D4
:1031E0000E3220E030E040E851E40E94F732CC2477
:1031F000CA9452E0E52E03E023E048E087FD40E07A
:1032000066E2CE010E945B0CEC01892B09F0BCCE7A
:10321000CECF8FE693E00E94670EEC01CC24CA94D7
:1032200042E0E42E01E023E048E06DE18091880473
:10323000909189040E945B0CC82BD92B209709F030
:10324000A3CE88E0809393048F2D0E94BF16EC01DB
:10325000892B09F099CE173008F068CE8FE693E0FD
:103260000E94670EEC018FE693E00E94470B8038C6
:10327000910559F58091880490918904111109C034
:1032800002E022E044E066E20E945B0CC82BD92BEE
:103290007BCECC24CA9432E0E32E02E022E040E070
:1032A00066E20E945B0C5C01F0E21F9FA00111240A
:1032B000436000E027E06CE08091880490918904ED
:1032C0000E945B0C8A299B29E1CF892B09F05CCEF7
:1032D0008091880490918904CC24CA9422E0E22E43
:1032E00003E023E048E06DE0112371F20E945B0CE3
:1032F0005C0180E2189FA0011124DACFAF92BF9247
:10330000CF92DF92EF92FF920F931F93CF93DF93B1
:1033100000D0CDB7DEB780918804909189040E94D7
:10332000490A809188049091890440E0DC019F96CD
:103330006C910E94F5090E94260B811107C08091B3
:103340008804909189040E942D0AFFCF8FE693E0B4
:103350000E94670E009799F48FE693E00E94470B56
:10336000892B41F48FE693E00E94470B892B09F4E7
:10337000B1C0EBCF80E00E94F20C009799F3892B4B
:1033800021F71092580382E080936E0382EB91E064
:10339000A0E0B0E080935D0390935E03A0935F0391
:1033A000B093600389EA91E0A0E0B0E08093650308
:1033B00090936603A0936703B093680387E08093BC
:1033C0006D0380E197E2A0E0B0E080936903909301
:1033D0006A03A0936B03B0936C03A0905403B09066
:1033E0005503D5011296CD90DD90ED90FC90159788
:1033F00020E030E0A901C701B6010E94F73220E0C9
:1034000030E040E05FE387FD9FC2C701B6010E9444
:103410008B310E9480329B01AC016B017C01F694E0
:10342000E794D794C794BAEACB16B1E0DB06E1047F
:10343000F10408F04EC069EA71E080E090E00E947B
:103440000C336C157D058E059F0508F082C2209314
:103450006103309362034093630350936403F50167
:1034600022813381448155816EEE7AE08FEC9DE4B8
:103470000E940E320E9487326093590370935A0360
:1034800080935B0390935C03D501ED91FC910288DE
:10349000F389E02D60E0C50109950097B9F4D501E5
:1034A000ED91FC910088F189E02D60E0C50109955E
:1034B000009761F4D501ED91FC910684F785E02D2C
:1034C00040E050E060E87FEBC5010995892B09F4E5
:1034D00045C2FFCFCC24CA9435E0E32E05E026E0B8
:1034E00040E061E080918804909189040E945B0C27
:1034F0005C0167E08FE693E00E9436108A299B29E1
:10350000009709F03CCF109298048FE693E00E9458
:10351000470B892B09F02DCF80919804811129CF79
:1035200061E08FE693E00E94CE0C009709F027CF70
:1035300022E0E22E00E027E041E062E08091880492
:10354000909189040E945B0C5C0127E040E463E0F9
:1035500080918804909189040E945B0C8A299B29A0
:10356000009709F00CCF80E090E0A8ECB2E48093E3
:10357000940490939504A0939604B093970440E02C
:1035800050E068E472E48FE693E00E945A100097DE
:1035900009F0F5CE8FE693E00E94470B892B09F0E6
:1035A000E8CE61E08FE693E00E94CE0C009709F030
:1035B000E6CEA0908804B090890460E070E08AEFC5
:1035C00092E40E94DC07F82E24E0482F63E1C50155
:1035D0000E945B0C009709F0D2CE67E08FE693E083
:1035E0000E943610009709F0CACE8FE693E00E9441
:1035F000470B892B09F0BDCE04E024E040E16DE0EB
:1036000080918804909189040E945B0C009709F0D6
:10361000B6CE8FE693E00E94470B892B09F0A9CE26
:1036200061E08FE693E00E94CE0C009709F0A7CEF0
:1036300000E024E04F2D62E180918804909189049C
:103640000E945B0C009709F09ACE0E942217009707
:1036500009F095CE80E190E00E941D0D009709F0E1
:103660008ECE82E189838DEA8A838FE693E00E9481
:10367000470B892B09F07DCE8981882309F479CE07
:103680008A81882309F475CE04E024E040E167E2F2
:1036900080918804909189040E945B0C5C0100E099
:1036A00022E041E067E280918804909189040E94C1
:1036B0005B0C8A299B29009709F061CE80918804D0
:1036C0009091890410E000E09E012F5F3F4F48E297
:1036D000FC0161810E94780A8FE693E00E94470B0B
:1036E000892B09F046CE01E022E040E060E38091C2
:1036F0008804909189040E945B0C009709F03FCEEA
:1037000000E027E040E063E3809188049091890421
:103710000E945B0C009709F032CE27E040E064E3A2
:1037200080918804909189040E945B0C009709F0B5
:1037300026CE8FE693E00E94470B892B09F019CE25
:103740008FE693E00E94670E009709F018CE03E021
:1037500027E040E06EE080918804909189040E9407
:103760005B0C5C0100E022E042E06EE080918804A6
:10377000909189040E945B0C8A299B29009709F08B
:10378000FECD60E08FE693E00E948D0F009709F078
:10379000F6CD8FE693E00E94470B892B09F0E9CD27
:1037A00007E027E040E860E3809188049091890475
:1037B0000E945B0C009709F0E2CD00E027E040E4B6
:1037C00062E380918804909189040E945B0C0097C9
:1037D00009F0D5CD80E88093A10427E04FEF60E1A8
:1037E00080918804909189040E945B0C009709F0F5
:1037F000C6CD40E16FE380918804909189040E94D6
:10380000ED0ACC24CA9492E0E92E00E027E040E9DA
:1038100060E380918804909189040E945B0C5C01B4
:1038200005E026E040E461E38091880490918904FA
:103830000E945B0C8A299B29009709F0A0CD25E006
:1038400040E267E280918804909189040E945B0CB9
:10385000009709F094CD07E027E040E865E3809108
:103860008804909189040E945B0C5C0100E025E0D3
:103870004FE065E380918804909189040E945B0C7D
:103880008A299B29009709F07ACD27E040E060E281
:1038900080918804909189040E945B0C5C0127E070
:1038A00040E061E280918804909189040E945B0C61
:1038B000A82AB92A27E040E062E28091880490912A
:1038C00089040E945B0C8A299B29009709F057CD37
:1038D00027E04AEA6FE180918804909189040E9470
:1038E0005B0C009709F04BCD07E027E040E864E46B
:1038F00080918804909189040E945B0C009709F0E4
:103900003ECD4AE959E169ED73E48FE693E00E9408
:10391000CD0F009709F033CD8AE999E1A9EDB3E421
:1039200080938A0490938B04A0938C04B0938D04AD
:103930008AE00E94BF16009709F021CD60E08FE673
:1039400093E00E9459161BCDC701B6010E948A312F
:1039500060CD2F5F3F4F4F4F5F4F79CD0F900F904E
:10396000DF91CF911F910F91FF90EF90DF90CF905B
:10397000BF90AF9008950F931F93CF93DF93EC0107
:103980008B0188819981009729F02A813B81261734
:10399000370788F4B8016F5F7F4F0E94803400972B
:1039A00099F0998388831B830A832C813D81232B83
:1039B00011F4FC0110821D830C836EE472E0888197
:1039C00099810E9454350CC088819981009711F02B
:1039D0000E94F733198218821D821C821B821A8270
:1039E000CE01DF91CF911F910F9108952F923F92B9
:1039F0004F925F926F927F928F929F92AF92BF92FF
:103A0000CF92DF92EF92FF920F931F93CF93DF93AA
:103A1000D82FC92F8B010E948C2D24E630E040E086
:103A200050E00E940C3349019B01AC0160E876E94B
:103A300088E990E00E94FC326B017C01F8019182E0
:103A40008082ED2FFC2F2191822F022E000C990BEA
:103A5000C0970A97C0F32E3239F51F0180E8882EEF
:103A600086E9982E88E9A82EB12C9AE0492E512C8F
:103A7000612C712CF101C1911F010C2E000CDD0B8A
:103A8000E097CA30D10580F4C501B401A3019201C9
:103A90000E940C3349015A01DE010E945333C60EC5
:103AA000D71EE81EF91EE6CFA5E0B0E0A7019601FB
:103AB0000E9439316F5F7F4F8F4F9F4F23E030E07F
:103AC00040E050E00E940C33F801228333834483AA
:103AD00055831682DF91CF911F910F91FF90EF9048
:103AE000DF90CF90BF90AF909F908F907F906F901E
:103AF0005F904F903F902F9008951F93CF93DF9347
:103B0000EC0118811D3209F42196CE010E948C2D02
:103B10009B01AC01A4E6B0E00E943931AB01BC01CD
:103B2000FE012991822F022E000C990BC0970A9753
:103B3000B8F32E3231F58181082E000C990BC09715
:103B40008A309105F0F4AAE0A89F9001A99F300D5A
:103B50001124C901330FAA0BBB0B480F591F6A1F51
:103B60007B1F8281082E000C990BC0978A3091052B
:103B700040F4092E000CAA0BBB0B480F591F6A1FFB
:103B80007B1F1D3239F470956095509541955F4FBC
:103B90006F4F7F4FCB01BA01DF91CF911F910895F5
:103BA0000F931F93CF93DF93EC018B01FB010190E7
:103BB0000020E9F73197CF01861B970B9B838A83FF
:103BC00001960E945B3399838883B8010E94543523
:103BD0001D821C82DF91CF911F910F9108950E9449
:103BE0003D358F929F92AF92BF92CF92DF92EF922C
:103BF000FF920F931F93CF93DF936C01DC0112961A
:103C00008D919C91880F991F01960E945B337C01D6
:103C1000B12CA12C912CD0E0C0E05FE1852EF60103
:103C200082819381A816B90608F053C00190F081F3
:103C3000E02DEA0DFB1D80810E942A07282F2F719D
:103C4000F701EC0FFD1F8E010F5F1F4F35E09695BA
:103C500087953A95E1F78F718B31C9F5911002C0C4
:103C60008083E8018E010F5F1F4FF701EC0FFD1FEE
:103C70002083D60112968D919C9113970197A816D7
:103C8000B906E8F4ED91FC91EA0DFB1D81810E94DB
:103C90002A0725E0969587952A95E1F78F71992453
:103CA00093948F3139F4F701E00FF11F80830F5F98
:103CB0001F4F912CBFEFAB1ABB0AE801B0CFF70141
:103CC000E00FF11F80828E010E5F1F4FF2CF208325
:103CD000F1CFD583C483CE01209711F481E090E029
:103CE0000E945B338C01AE01B7010E944235E114A2
:103CF000F10419F0C7010E94F733C801DF91CF9199
:103D00001F910F91FF90EF90DF90CF90BF90AF90F9
:103D10009F908F9008950F931F93CF93DF93EC01A3
:103D20000E94F11D8C018C819D81892B19F4CE019B
:103D30000E94F11D6C817D81C8010E947109EC0116
:103D40000115110519F0C8010E94F733CE01DF916A
:103D5000CF911F910F9108952F923F924F925F92B2
:103D60006F927F928F929F92AF92BF92CF92DF928B
:103D7000EF92FF920F931F93CF93DF93CDB7DEB7F0
:103D800063970FB6F894DEBF0FBECDBF8C017A8368
:103D900069831A01298761E00E94CE0C009709F01F
:103DA00051C1C8010E94470B8038910509F068C1D4
:103DB000F801ED5DFE4F208161E070E080E090E071
:103DC00004C0660F771F881F991F2A95D2F70E949B
:103DD0000430F801E15EFE4F208131814281538140
:103DE0000E940E324B015C0120E030E040E851E4DB
:103DF0000E94F73287FD3FC120E030E040E85FE3FA
:103E00002D833E834F835887A801475E5E4F5B8BAF
:103E10004A8B6DE1DA018D919C910E94090B898B8F
:103E20006EE1EA89FB89808191810E94090B888B70
:103E300060E2AA89BB898D919C910E94090BF82EA2
:103E400061E2EA89FB89808191810E94090B7F2DC3
:103E5000682F072E000C880B990B0E9406306C8788
:103E60007D878E879F87F801ED5DFE4F608170E052
:103E700090E080E00E94043020E030E040E850E430
:103E80000E9465306B017C01B10190E080E00E94EE
:103E9000043020E030E040E051E40E946530A701AA
:103EA00096010E948A3120E030E040EE51E40E9409
:103EB0008B312B013C01F889F2FBFF27F0F9FA87DF
:103EC0001B862A853B85B901330F880B990B0E940D
:103ED000063020E030E040E851E40E9465309B016C
:103EE000AC01C301B2010E948B312B013C016989F5
:103EF0006170062E000C770B880B990B0E94063020
:103F000020E030E040EA51E40E9465309B01AC01C2
:103F1000C301B2010E948A312B013C0120E030E054
:103F200040E051E46D817E818F8198850E946530EB
:103F30009B01AC01C701B6010E948A319B01AC0113
:103F4000C301B2010E940E320E94F7316B017C0165
:103F5000F801EC5DFE4F608170E090E080E00E942F
:103F60000430A70196010E9465306B017C0120E0BE
:103F700030E0A9010E94F73220E030E040E051E457
:103F8000181634F4C701B6010E948B319B01AC01B5
:103F90006C857D858E859F850E948B3120E030E089
:103FA00048E850E40E948B31A50194010E946530DD
:103FB00020E030E84BEB54E40E9465300E94F7317A
:103FC0002B013C01D801ED91FC910680F781E02D99
:103FD0002985A10169817A81C8010995009791F528
:103FE000EA89FB89808191810E949E086B017C0196
:103FF000AA89BB898D919C91FC0167A50E94C30988
:104000008111C8C0AA89BB898D919C910E94B30877
:10401000EA89FB89808191810E949E084B015C01A5
:10402000C301B2010E9487328C189D08AE08BF08F8
:10403000681579058A059B05D8F6C8010E94520BC0
:104040008BEF9FEF63960FB6F894DEBF0FBECDBF28
:10405000DF91CF911F910F91FF90EF90DF90CF9064
:10406000BF90AF909F908F907F906F905F904F9098
:104070003F902F9008951D821E821F821886C4CE05
:10408000892B09F0E0C0F801EB5DFE4F2081318102
:10409000428153812D833E834F835887D801ED9110
:1040A000FC910680F781E02D2985A10169817A8143
:1040B000C8010995009731F6F801E75EFE4FFA83D3
:1040C000E983808191810E949E086B017C01298196
:1040D0003A813B872A87C10123E0880F991F2A95DF
:1040E000E1F79C0150E040E029833A834B835C83F5
:1040F000AA85BB858D919C91FC0167A50E94C3098F
:10410000811148C0AA85BB858D919C910E94B308FE
:10411000EA85FB85808191810E949E084B015C01AC
:1041200069817A818B819C810E9404302B013C0142
:1041300020E030E04AE754E46D817E818F819885EC
:104140000E9465309B01AC01C301B2010E940E3296
:1041500020E836E948E95AE40E9465300E94873237
:10416000605C744B834B9F4F8C189D08AE08BF0852
:10417000681579058A059B0508F0BACFC8010E9429
:10418000520BD801ED91FC910280F381E02DC80122
:10419000099556CFF801E75EFE4F808191810E941C
:1041A0009E084B015C01F801E35DFE4FFA83E98351
:1041B000B10190E080E00E94043020E030E040E077
:1041C00051E40E9465302B013C01C501B4016C191A
:1041D0007D098E099F090E94043020E034E244E703
:1041E00059E40E940E329B01AC01C301B2010E944E
:1041F0000E32A981BA816D937D938D939C93139711
:10420000C8010E94520BD801ED91FC910280F3810C
:10421000E02DC80163960FB6F894DEBF0FBECDBF88
:10422000DF91CF911F910F91FF90EF90DF90CF9092
:10423000BF90AF909F908F907F906F905F904F90C6
:104240003F902F9009948FEF9FEFFCCE8F929F921B
:10425000AF92BF92CF92DF92EF92FF920F931F9394
:10426000CF934B01CB010E942331182FC40101963B
:104270000E942331C82FC40102960E942331C82E08
:10428000C40103960E942331082F6C2F70E090E048
:1042900080E0982F872F762F6627610F711D811D73
:1042A000911DD12CF12CE12C7601DD24CC246C0D58
:1042B0007D1D8E1D9F1D10E030E020E0302F222755
:1042C00011270027600F711F821F931FCF911F912D
:1042D0000F91FF90EF90DF90CF90BF90AF909F90A5
:1042E0008F900895CF92DF92EF92FF92CF93DF935A
:1042F000EC016A017B01642F0E942B319927F7FCA6
:104300009A958F2D7E2D6D2DCE0101960E942B3119
:10431000B701992777FD9095892FCE0102960E94CB
:104320002B316F2D772788279927CE010396DF91B0
:10433000CF91FF90EF90DF90CF900C942B312F9284
:104340003F924F925F926F927F928F929F92AF9225
:10435000BF92CF92DF92EF92FF920F931F93CF9372
:10436000DF93CDB7DEB7C355D1090FB6F894DEBFE2
:104370000FBECDBF61968FAF619762969FAF629778
:1043800063964FAF639764965FAF6497362E272E80
:10439000290188EC80937C0080917A00806880936A
:1043A0007A006AE070E080E090E00E94250380914E
:1043B0007A00806480937A0080917A0086FDFCCF39
:1043C00060917800709179005E0122E3A20EB11C29
:1043D00090E080E00E9404302EEA37E242EA53E4A3
:1043E0000E948A3126EF38E24CE95FE30E940E32E8
:1043F000850121E043E00E946E2D0E94C4154E010C
:104400004CE3840E911C840122E044E00E946E2D56
:104410000E94C4153E0156E4650E711C830122E022
:1044200044E060E070E0CB010E946E2D7E0162E10D
:10443000E60EF11C60912E0270912F0280913002E5
:1044400090913102870125E047E00E946E2D6E01B8
:1044500082E2C80ED11C60912A0270912B028091D9
:104460002C0290912D02860125E047E00E946E2DDE
:104470007F926F929F928F92BF92AF9280913702FC
:104480008F93809136028F93809135028F93809124
:1044900034028F93809133028F93809132028F93F5
:1044A000DF92CF92FF92EF92809129028F938091B9
:1044B00028028F93809127028F93809126028F93F9
:1044C000809125028F93809124028F932F923F92A7
:1044D00064969FAD64979F936396EFAD6397EF9358
:1044E0006296FFAD6297FF9361962FAD61972F9310
:1044F0005F924F9286E691E09F938F930EE412E0D5
:104500001F930F930E946A35F80101900020E9F78C
:104510009F012F543240F20101900020E9F7E41985
:10452000F509E35BFD4F0FB6F894DEBF0FBECDBFBC
:104530008FEF9FEFAF014E54524042175307BCF428
:104540004191042E000C550B542F442784279527A6
:1045500048E050E0BC01880F991F77FF04C061E27A
:10456000862760E1962741505109A1F7E3CF225BEE
:104570003D4F4AE2F901408341E1E4E9F1E0DE0127
:10458000119601900D924A95E1F7FC01EF2FFF275C
:10459000E295EF7041E050E04C0F5D1FE40FF51F16
:1045A0004081F901418341E1E4E9F1E0DE01119646
:1045B00001900D924A95E1F7E92FEF7041E050E04C
:1045C0004C0F5D1F4E0F511DFA014081F9014283CE
:1045D00041E1E4E9F1E0DE01119601900D924A9586
:1045E000E1F7FC0154E0F695E7955A95E1F7EF7095
:1045F00041E050E04C0F5D1F4E0F511DFA019081BC
:10460000F901938391E1E4E9F1E0DE011196019073
:104610000D929A95E1F78F70E1E0F0E0EC0FFD1F4D
:10462000E80FF11D8081F90184838AE08583168279
:10463000CD5ADF4F0FB6F894DEBF0FBECDBFDF916E
:10464000CF911F910F91FF90EF90DF90CF90BF908F
:10465000AF909F908F907F906F905F904F903F9022
:104660002F9008951F920F920FB60F9211242F933F
:104670003F938F939F93AF93BF9380914602909106
:104680004702A0914802B09149023091450226E0CC
:10469000230F2D3758F50296A11DB11D2093450219
:1046A0008093460290934702A0934802B093490238
:1046B00080914A0290914B02A0914C02B0914D0220
:1046C0000196A11DB11D80934A0290934B02A093C5
:1046D0004C02B0934D02BF91AF919F918F913F914A
:1046E0002F910F900FBE0F901F90189529E8230F60
:1046F0000396A11DB11DD2CF1F920F920FB60F923C
:1047000011242F933F934F935F936F937F938F93D6
:104710009F93AF93BF93EF93FF93E0911301F091B9
:1047200014010995FF91EF91BF91AF919F918F91E6
:104730007F916F915F914F913F912F910F900FBE9D
:104740000F901F9018951F920F920FB60F92112481
:104750002F933F934F935F936F937F938F939F9389
:10476000AF93BF93EF93FF93E0911101F09112018A
:104770000995FF91EF91BF91AF919F918F917F919B
:104780006F915F914F913F912F910F900FBE0F90BE
:104790001F9018951F920F920FB60F9211242F930E
:1047A0003F934F935F936F937F938F939F93AF93B9
:1047B000BF93EF93FF938091200290912102A091EB
:1047C0002202B0912302892B8A2B8B2BD1F190915D
:1047D0001F02E0911D02F0911E02808189278083D3
:1047E0008091200290912102A0912202B091230297
:1047F000181619061A061B069CF480912002909147
:104800002102A0912202B09123020197A109B109CE
:104810008093200290932102A0932202B09323025E
:10482000FF91EF91BF91AF919F918F917F916F9188
:104830005F914F913F912F910F900FBE0F901F905E
:104840001895809110010E948B03EACF1F920F925E
:104850000FB60F9211242F933F934F935F936F9353
:104860007F938F939F93AF93BF93EF93FF9386EBC9
:1048700092E00E949B06FF91EF91BF91AF919F91B3
:104880008F917F916F915F914F913F912F910F90F9
:104890000FBE0F901F9018951F920F920FB60F9298
:1048A00011242F938F939F93EF93FF93E091C60270
:1048B000F091C7028081E091CC02F091CD0282FD9F
:1048C0001BC090818091CF028F5F8F732091D002A7
:1048D000821741F0E091CF02F0E0EA54FD4F958F4E
:1048E0008093CF02FF91EF919F918F912F910F9025
:1048F0000FBE0F901F9018958081F4CF1F920F92DA
:104900000FB60F9211242F933F934F935F936F93A2
:104910007F938F939F93AF93BF93EF93FF93E09118
:10492000B402F091B502309749F0A685B785858528
:10493000968D91FF14C09C918923A1F4FF91EF9172
:10494000BF91AF919F918F917F916F915F914F91A7
:104950003F912F910F900FBE0F901F9018959C9133
:10496000892361F7A389B4899C91858980958923DE
:104970008C93868997890197F1F7608D718DA68553
:10498000B785558538E020E0CB010197F1F7822FFC
:1049900090E095958795282F4C91452309F0206844
:1049A000315091F7868D81FD20958091B30290E082
:1049B00001968F7399273091B202381799F0A09120
:1049C000B302B0E0A053BE4F2C938093B302828D0C
:1049D000938D0197F1F7A389B4898C919589892BDF
:1049E0008C93ACCF868D8160868FF1CF1F920F9212
:1049F0000FB60F9211248F939F9381E0809315013E
:104A00008091CE019091CF0101969093CF01809338
:104A1000CE019F918F910F900FBE0F901F90189510
:104A20001092B9021092B80288EE93E0A0E0B0E0D4
:104A30008093BA029093BB02A093BC02B093BD02D4
:104A400020E231E03093B7022093B60225EC30E04B
:104A50003093C3022093C20224EC30E03093C502AD
:104A60002093C40220EC30E03093C7022093C602AA
:104A700021EC30E03093C9022093C80222EC30E0F0
:104A80003093CB022093CA0226EC30E03093CD0263
:104A90002093CC021092CF021092D0021092D10239
:104AA0001092D2021092540510925305809355052E
:104AB00090935605A0935705B093580588E591E06B
:104AC00090935205809351051092680510926705E6
:104AD00010926A051092690510926C0510926B0590
:104AE00010926E0510926D0560916F056E7F6D7F5F
:104AF00060936F056695617081E0682787E00E948A
:104B0000ED0261E087E00E942B01E0EFF1E0E4912B
:104B1000E0936105ECEDF1E0E491F0E0EE0FFF1FB2
:104B2000E553FE4F859194919093630580936205C0
:104B300060E088E00E942B0180916F0581FD04C038
:104B400061E088E00E94ED0288E080935D05E1EF7E
:104B5000F1E0E491E0935E05EDEDF1E0E491F0E049
:104B6000EE0FFF1FEF53FE4F8591949190936005D8
:104B700080935F051092A4041092A5041092A704DC
:104B80001092A6041092A8041092A9041092AA04EC
:104B90001092AB041092AC041092AE041092AD04CB
:104BA0001092AF041092B0041092B1041092B204AB
:104BB0001092B3041092B5041092B4041092B6048B
:104BC0001092B7041092B8041092B9041092BA046B
:104BD0001092BC041092BB041092BD041092BE044B
:104BE0001092BF041092C0041092C1041092C60427
:104BF0001092C7041092C8041092C9041092CA04FB
:104C00001092CB041092D4041092D5041092D604C2
:104C10001092D7041092D8041092D9041092E20492
:104C20001092E3041092E8041092E9041092EA044E
:104C30001092EB041092F0041092F1041092F6041A
:104C40001092F7041092F8041092F9041092FE04E6
:104C50001092FF04109204051092050510920605AB
:104C60001092070510920C0510920D051092120576
:104C700010921305109214051092150510921A0542
:104C800010921B051092200510922105109222050A
:104C900010922305109228051092290582E0809336
:104CA000390510923A0510923B0510923C0510927E
:104CB0003E0510923D051092400510923F0510925E
:104CC000410510924205109243051092440510923E
:104CD000450510924605109247051092480510921E
:104CE000490510924A0510924B0510924C051092FE
:104CF0004D0510924E0510924F05109250051092DE
:104D00002A058AE390E00E945B33FC01108290E860
:104D1000918385E086A784E087A78FEF80AB81AB86
:104D200020E524AB15AA17AA80AF81AF23E533E0B5
:104D300033AB22AB81E086AB2BE231E033832283BD
:104D400024EC32E0378326832DEE32E03583248352
:104D500027EB33E0318720872BE833E03387228746
:104D60002BE633E03587248728E533E0378726872D
:104D700024E233E0318B208B25E233E0338B228B2E
:104D80002BE133E0358B248B27E631E0378B268B04
:104D900023E731E0318F208F28E638E0338F228FF0
:104DA000158E148E28E931E0378F268F11A210A2BC
:104DB00028EB31E033A322A315A214A229ED31E0A0
:104DC00037A326A311A610A629EF31E033A722A707
:104DD00015A614A640E054E264E772E44093710320
:104DE0005093720360937303709374032FEF30E05A
:104DF0003093760320937503109277031092780313
:104E000010928A0410928B0410928C0410928D04DC
:104E100010928E0410928F041092900410929104BC
:104E2000109292041092930410929404109295049C
:104E3000109296041092970410929804109299047C
:104E400010929B0410929A0410929C0410929D045C
:104E500010929E0410929F041092A0049093A104BB
:104E6000F0938904E093880422E331E030937003E7
:104E700020936F038093A2041092A304109258030E
:104E80001092590310925A0310925B0310925C0324
:104E900010925D0310925E0310925F031092600304
:104EA00010926103109262031092630310926403E4
:104EB00010926503109266031092670310926803C4
:104EC0001092690310926A0310926B0310926C03A4
:104ED00010926D0310926E038FE693E0909355034A
:104EE0008093540310925703109256030895CF9362
:104EF000DF93CDB7DEB760970FB6F894DEBF0FBE75
:104F0000CDBF789484B5826084BD84B5816084BD52
:104F100085B5826085BD85B5816085BD80916E0057
:104F2000816080936E001092810080918100826088
:104F300080938100809181008160809381008091C5
:104F400080008160809380008091B10084608093B4
:104F5000B1008091B00081608093B00080917A00B0
:104F6000846080937A0080917A00826080937A00D6
:104F700080917A008E7F80937A0080917A00806899
:104F800080937A001092C10061E08FE00E942B01B3
:104F900061E080E10E942B0161E081E10E942B0130
:104FA00061E082E10E942B0161E083E10E942B011C
:104FB00061E08FE00E94ED0261E080E10E94ED027D
:104FC00061E081E10E94ED0261E082E10E94ED0278
:104FD00061E083E10E94ED020E9419020E942C15FB
:104FE0000E947E190E94431724E6422E512C612C08
:104FF000712C90E0292E90E0392E01E082E0C82E3D
:1050000080911501882309F437C5109215010E947B
:1050100067016D877E878F87988B80910C05882329
:1050200009F4C4C110920D058091120590911305E9
:1050300090933702809336028091D404882309F438
:10504000BAC11092D5048090D6049090D704A09055
:10505000D804B090D904C501B40120E432E44FE093
:1050600050E00E940C3330E030932502209324025C
:10507000C501B40120E137E240E050E00E940C336A
:10508000CA01B901A30192010E940C337093270257
:1050900060932602C501B401A30192010E940C3362
:1050A000CA01B901A30192010E940C337093290235
:1050B000609328028091A404882309F489C1109286
:1050C000A5046091AF047091B0048091B1049091F7
:1050D000B2040E94043028E23BE64EE65EE40E9401
:1050E0000E324B015C016091AD047091AE0490E012
:1050F00080E00E9404309B01AC01C501B4010E9414
:105100008B312091B3042111905860932A0270933F
:105110002B0280932C0290932D026091A804709131
:10512000A9048091AA049091AB040E94043028E263
:105130003BE64EE65EE40E940E324B015C0160915C
:10514000A6047091A70490E080E00E9404309B01C7
:10515000AC01C501B4010E948B312091AC04211136
:10516000905860932E0270932F0280933002909398
:1051700031028091FE04882309F43BC11092FF04A0
:1051800060910405709105058091060590910705D1
:105190000E94063020E030E048EC52E40E940E32DB
:1051A0000E94803260933202709333028093340203
:1051B000909335028091320290913302A091340293
:1051C000B0913502B7FF08C010923202109233023C
:1051D00010923402109235020E9467014B015C016B
:1051E00081E595E00E94DF14892B09F4F1C281E585
:1051F00095E00E94F514182F809141059091420589
:10520000A0914305B09144050196A11DB11D809365
:10521000410590934205A0934305B0934405143291
:1052200009F4B5C2E0913B0515320CF0EBC01A3021
:1052300019F01D3009F0B8C2EF3008F060C1F0E09D
:10524000E65DFA4F108280912905882309F465C133
:1052500020912A05822F022E000C990B3FEB320F72
:10526000363008F0DBC0C7978295807F90912B0580
:10527000292F092E000C330B4FEB490F463008F055
:10528000D5C027533109820F90912805891324C175
:1052900080914D0590914E05A0914F05B09150051C
:1052A0000196A11DB11D80934D0590934E05A093CD
:1052B0004F05B093500580913C05882399F080916B
:1052C000450590914605A0914705B0914805019686
:1052D000A11DB11D8093450590934605A0934705F8
:1052E000B0934805F0903905FF2009F4A8C021E0EB
:1052F000F21234C086EC94E00E94531484ED94E0E2
:105300000E94531480913C05882341F187E0E4EB2F
:10531000F4E0A6EAB4E001900D928A95E1F787E007
:10532000EBEBF4E0ADEAB4E001900D928A95E1F781
:105330000E9467016093C2047093C3048093C40405
:105340009093C504F092A504F092A40482EE94E038
:105350000E943C1480EF94E00E943C14E0903F05D2
:10536000F0904005E114F10409F4C9C0E0913F0553
:10537000F091400566A177A1D70196968D919C91F9
:105380000E944B35892B09F0BAC0B701C70140967E
:105390000E9454350E946701F70160A371A382A3A4
:1053A00093A305A304A3E2A4F3A4DCCF10923702D5
:1053B0001092360241CE10922502109224021092D1
:1053C000270210922602109229021092280272CE11
:1053D00010922A0210922B0210922C0210922D028F
:1053E00010922E0210922F0210923002109231026F
:1053F000C0CE1092320210923302109234021092F8
:105400003502D8CE1A3209F417CF1C3209F0CCC1BC
:10541000809128058127809328050ECF21562630BC
:1054200018F48755910920CFC0971ECF915696301A
:1054300018F42755310927CF2053310924CF84EDA3
:1054400094E00E94531480913C05882321F187E069
:10545000E4EBF4E0A6EAB4E001900D928A95E1F75E
:1054600087E0EBEBF4E0ADEAB4E001900D928A95B1
:10547000E1F70E9467016093C2047093C3048093B4
:10548000C4049093C5040093A5040093A4048EEF74
:1054900094E00E943C148091160590911705A0910C
:1054A0001805B09119058093120590931305A093E8
:1054B0001405B09315050E94670160930E05709363
:1054C0000F05809310059093110500930D0500932F
:1054D0000C058AE195E040CF8091490590914A05FD
:1054E000A0914B05B0914C050196A11DB11D809373
:1054F000490590934A05A0934B05B0934C058091C4
:105500003A058F5F80933A0510923B0581E01A328D
:1055100009F080E08093290563CE90913A059111BE
:1055200045C065EA71E08AE295E00E944B35892B1F
:1055300041F06BEA71E08AE295E00E944B35892BDD
:10554000F9F40093390580913D0590913E059093C3
:10555000400580933F05E0903F05F0904005E11441
:10556000F10469F26AE275E0D70196968D919C91FB
:105570000E944B3597FFA0C2F70182A593A5E7CF04
:1055800061EB71E08AE295E00E944B35892B41F096
:1055900067EB71E08AE295E00E944B35892B19F4A4
:1055A00010923905D0CFC0923905CDCFE0913905A1
:1055B000E23009F448C080912A05882309F443C0E9
:1055C00020E2E29FF0011124E92B3197E932F10545
:1055D00008F039C0E251F54D0C944D33172B5A2B7E
:1055E000612B682B6B2B992BA02BAD2BBA2B232B6C
:1055F000232B232B232B232B232B232B232B232B3B
:10560000232B232B232B232B232B232B232B232B2A
:10561000232B232B232B232B232B232B172B542BF5
:105620005A2B612B682B6B2B722B7F2B8C2B8AE2D6
:1056300095E00E947D1D6093DA047093DB048093F3
:10564000DC049093DD04E0903F05F0904005D0909D
:105650003A05E114F10409F452CFE0913F05F091CD
:10566000400566A177A1D70196968D919C910E94E5
:105670004B35892B09F043CFF70120A531A58D2D9E
:1056800090E0821793070CF43ACF2817390739F4C2
:1056900040E150E06AE275E0C7010E945B35D70146
:1056A0009A96ED90FC90D3CF91E0813409F445C0F7
:1056B00090E043C064EB74E08AE295E00E94F61C3F
:1056C000C2CF91E0833509F090E09093BA04BBCF4C
:1056D0006BEB74E0F1CF91E0873509F090E09093A7
:1056E000C104B1CF8AE295E00E947D1D6093EC0475
:1056F0007093ED048093EE049093EF04A4CF8AE2BC
:1057000095E00E947D1D6093FA047093FB048093E2
:10571000FC049093FD0497CF8AE295E00E948C2DC3
:105720006093CC047093CD048093CE049093CF0407
:105730008ACF91E081330CF4BBCF90933C0583CFAB
:105740008AE295E00E948C2D6093160570931705F0
:10575000809318059093190576CF8AE295E00E9410
:105760007D1D6093240570932505809326059093F5
:10577000270569CF8AE295E00E947D1D60930805A8
:105780007093090580930A0590930B055CCF1092E6
:105790003B0510923A0510922805C09239051092E7
:1057A000290510923C051CCDEE3040F481E08E0FAF
:1057B00080933B05F0E0E65DFA4F10838091290568
:1057C00081110ECD8091280518271093280508CD4A
:1057D0000E946701681979098A099B09683E73402C
:1057E0008105910508F4FCCC809141029091420220
:1057F000A0914302B09144022D853E854F85588982
:10580000281B390B4A0B5B0BDA01C901883893411D
:10581000A105B10508F42EC18D859E85AF85B88997
:105820008093410290934202A0934302B0934402BA
:1058300086EB92E00E940A07E091C802F091C9024B
:1058400080818F7E8083E091C802F091C9028081BF
:10585000877F8083E091C802F091C90280818F77B1
:105860008083E091C802F091C90280818F7D80839E
:105870008091D0028093CF0260E08FE00E94ED0221
:1058800060E080E10E94ED0260E081E10E94ED02B3
:1058900060E082E10E94ED0260E083E10E94ED029F
:1058A00060E070E0CB010E942621AB01BC01DC016D
:1058B000CA010196A11DB11D80933D0290933E0245
:1058C000A0933F02B09340022DEB31E082EC91E0D7
:1058D0000E949F2118861F821A8619861C861B86A5
:1058E000AEE4B2E00D900020E9F7BD016F547240C4
:1058F000CE0107960E94BB1C81E595E00E9416151B
:105900000E947E190E94BB0860ED77E080E090E085
:105910000E94250380915803823009F0B9C06F813D
:105920007885CE0101960E94D01DCE0101960E947D
:105930008B1E89819A81009711F00E94F733809124
:105940005803823009F0AEC066EC71E0CE010196DA
:105950000E94D01DCE0101960E948B1E89819A81E2
:10596000009711F00E94F7330E942C158F819885C3
:10597000009711F00E94F73340913D0250913E0292
:1059800060913F027091400290E080E00E9472219D
:1059900068EE73E080E090E00E94250364E070E030
:1059A00080E090E00E942621AB01BC01DC01CA012D
:1059B0000196A11DB11D8093390290933A02A093E4
:1059C0003B02B0933C022FEB31E089EC91E00E9466
:1059D0009F211A8219821C821B821E821D82EEE484
:1059E000F2E001900020E9F7BF016F547240CE0150
:1059F00001960E94BB1C0E94431769817A81FB01BA
:105A000001900020E9F73197AF01461B570B20E0CA
:105A10008FE693E00E94AC1E89819A81009711F075
:105A20000E94F7334091390250913A0260913B0253
:105A300070913C0284E090E00E9472210E94190261
:105A40006AE070E080E090E00E94250361E08FE072
:105A50000E94ED0261E080E10E94ED0261E081E1DF
:105A60000E94ED0261E082E10E94ED0261E083E1CB
:105A70000E94ED02009315012114310409F4C0CAFB
:105A80000E948706882309F4B8CA0E940000B1CAA0
:105A9000823008F054CF6B857C858F8198850E9479
:105AA00071094DCF823008F05FCF62E070E086EC84
:105AB00091E00E94710958CF892B09F420CD1092F2
:105AC000400510923F051BCD88E591E0909352056B
:105AD0008093510581E595E00C941615EF920F9394
